{
  "_format": "hh-sol-artifact-1",
  "contractName": "Web3DPLabel",
  "sourceName": "contracts/web3dp_label.sol",
  "abi": [
    {
      "inputs": [
        {
          "internalType": "string",
          "name": "label",
          "type": "string"
        },
        {
          "internalType": "uint256",
          "name": "token_id",
          "type": "uint256"
        }
      ],
      "name": "addLabel",
      "outputs": [],
      "stateMutability": "nonpayable",
      "type": "function"
    },
    {
      "inputs": [
        {
          "internalType": "uint256",
          "name": "token_id",
          "type": "uint256"
        },
        {
          "internalType": "uint256",
          "name": "label_id",
          "type": "uint256"
        }
      ],
      "name": "getLabel",
      "outputs": [
        {
          "internalType": "string",
          "name": "",
          "type": "string"
        }
      ],
      "stateMutability": "view",
      "type": "function"
    },
    {
      "inputs": [
        {
          "internalType": "uint256",
          "name": "token_id",
          "type": "uint256"
        },
        {
          "internalType": "uint256",
          "name": "label_id",
          "type": "uint256"
        }
      ],
      "name": "getLabelStatus",
      "outputs": [
        {
          "internalType": "uint256",
          "name": "",
          "type": "uint256"
        }
      ],
      "stateMutability": "view",
      "type": "function"
    },
    {
      "inputs": [
        {
          "internalType": "uint256",
          "name": "token_id",
          "type": "uint256"
        },
        {
          "internalType": "uint256",
          "name": "label_id",
          "type": "uint256"
        }
      ],
      "name": "getLabelUser",
      "outputs": [
        {
          "internalType": "address",
          "name": "",
          "type": "address"
        }
      ],
      "stateMutability": "view",
      "type": "function"
    },
    {
      "inputs": [
        {
          "internalType": "uint256",
          "name": "token_id",
          "type": "uint256"
        }
      ],
      "name": "getLabels",
      "outputs": [
        {
          "components": [
            {
              "internalType": "uint256",
              "name": "label_id",
              "type": "uint256"
            },
            {
              "internalType": "address",
              "name": "user",
              "type": "address"
            },
            {
              "internalType": "string",
              "name": "label",
              "type": "string"
            },
            {
              "internalType": "uint256",
              "name": "status",
              "type": "uint256"
            },
            {
              "internalType": "uint256",
              "name": "token_id",
              "type": "uint256"
            }
          ],
          "internalType": "struct Web3DPLabel.Label[]",
          "name": "",
          "type": "tuple[]"
        }
      ],
      "stateMutability": "view",
      "type": "function"
    },
    {
      "inputs": [
        {
          "internalType": "uint256",
          "name": "",
          "type": "uint256"
        },
        {
          "internalType": "uint256",
          "name": "",
          "type": "uint256"
        }
      ],
      "name": "label_map",
      "outputs": [
        {
          "internalType": "uint256",
          "name": "label_id",
          "type": "uint256"
        },
        {
          "internalType": "address",
          "name": "user",
          "type": "address"
        },
        {
          "internalType": "string",
          "name": "label",
          "type": "string"
        },
        {
          "internalType": "uint256",
          "name": "status",
          "type": "uint256"
        },
        {
          "internalType": "uint256",
          "name": "token_id",
          "type": "uint256"
        }
      ],
      "stateMutability": "view",
      "type": "function"
    },
    {
      "inputs": [
        {
          "internalType": "string",
          "name": "label",
          "type": "string"
        },
        {
          "internalType": "uint256",
          "name": "token_id",
          "type": "uint256"
        }
      ],
      "name": "removeLabel",
      "outputs": [],
      "stateMutability": "nonpayable",
      "type": "function"
    }
  ],
  "bytecode": "0x608060405234801561001057600080fd5b506109f7806100206000396000f3fe608060405234801561001057600080fd5b506004361061007d5760003560e01c8063b27e18301161005b578063b27e1830146100e5578063eb9e7162146100f8578063ecd4028c14610118578063f443a1d91461013857600080fd5b80633d880bf8146100825780635d5e4098146100af578063b1203005146100d0575b600080fd5b6100956100903660046106e0565b610163565b6040516100a695949392919061074f565b60405180910390f35b6100c26100bd3660046106e0565b610245565b6040519081526020016100a6565b6100e36100de3660046107a3565b610288565b005b6100e36100f33660046107a3565b610350565b61010b610106366004610858565b6103fd565b6040516100a69190610871565b61012b6101263660046106e0565b61052c565b6040516100a69190610911565b61014b6101463660046106e0565b6105fa565b6040516001600160a01b0390911681526020016100a6565b6000602052816000526040600020818154811061017f57600080fd5b60009182526020909120600590910201805460018201546002830180549295506001600160a01b039091169350906101b69061092b565b80601f01602080910402602001604051908101604052809291908181526020018280546101e29061092b565b801561022f5780601f106102045761010080835404028352916020019161022f565b820191906000526020600020905b81548152906001019060200180831161021257829003601f168201915b5050505050908060030154908060040154905085565b600082815260208190526040812061025e60018461097c565b8154811061026e5761026e610993565b906000526020600020906005020160030154905092915050565b6040805160a081018252600083815260208190529182205481906102ad9060016109a9565b815233602080830191909152604080830187905260006060840181905260809093018690528583528282528083208054600180820183559185529383902085516005909502019384558483015190840180546001600160a01b0319166001600160a01b03909216919091179055830151805193945084936103349260028501920190610647565b5060608201518160030155608082015181600401555050505050565b6040805160a081018252600083815260208190529182205481906103759060016109a9565b815233602080830191909152604080830187905260016060840181905260809093018690526000868152808352818120805480860182559082529083902085516005909202019081558483015193810180546001600160a01b0319166001600160a01b0390951694909417909355830151805193945084936103349260028501920190610647565b600081815260208181526040808320805482518185028101850190935280835260609492939192909184015b828210156105215760008481526020908190206040805160a081018252600586029092018054835260018101546001600160a01b0316938301939093526002830180549293929184019161047c9061092b565b80601f01602080910402602001604051908101604052809291908181526020018280546104a89061092b565b80156104f55780601f106104ca576101008083540402835291602001916104f5565b820191906000526020600020905b8154815290600101906020018083116104d857829003601f168201915b505050505081526020016003820154815260200160048201548152505081526020019060010190610429565b505050509050919050565b600082815260208190526040902060609061054860018461097c565b8154811061055857610558610993565b906000526020600020906005020160020180546105749061092b565b80601f01602080910402602001604051908101604052809291908181526020018280546105a09061092b565b80156105ed5780601f106105c2576101008083540402835291602001916105ed565b820191906000526020600020905b8154815290600101906020018083116105d057829003601f168201915b5050505050905092915050565b600082815260208190526040812061061360018461097c565b8154811061062357610623610993565b60009182526020909120600590910201600101546001600160a01b03169392505050565b8280546106539061092b565b90600052602060002090601f01602090048101928261067557600085556106bb565b82601f1061068e57805160ff19168380011785556106bb565b828001600101855582156106bb579182015b828111156106bb5782518255916020019190600101906106a0565b506106c79291506106cb565b5090565b5b808211156106c757600081556001016106cc565b600080604083850312156106f357600080fd5b50508035926020909101359150565b6000815180845260005b818110156107285760208185018101518683018201520161070c565b8181111561073a576000602083870101525b50601f01601f19169290920160200192915050565b8581526001600160a01b038516602082015260a06040820181905260009061077990830186610702565b606083019490945250608001529392505050565b634e487b7160e01b600052604160045260246000fd5b600080604083850312156107b657600080fd5b823567ffffffffffffffff808211156107ce57600080fd5b818501915085601f8301126107e257600080fd5b8135818111156107f4576107f461078d565b604051601f8201601f19908116603f0116810190838211818310171561081c5761081c61078d565b8160405282815288602084870101111561083557600080fd5b826020860160208301376000602093820184015298969091013596505050505050565b60006020828403121561086a57600080fd5b5035919050565b60006020808301818452808551808352604092508286019150828160051b87010184880160005b8381101561090357888303603f19018552815180518452878101516001600160a01b0316888501528681015160a0888601819052906108d982870182610702565b60608481015190880152608093840151939096019290925250509386019390860190600101610898565b509098975050505050505050565b6020815260006109246020830184610702565b9392505050565b600181811c9082168061093f57607f821691505b6020821081141561096057634e487b7160e01b600052602260045260246000fd5b50919050565b634e487b7160e01b600052601160045260246000fd5b60008282101561098e5761098e610966565b500390565b634e487b7160e01b600052603260045260246000fd5b600082198211156109bc576109bc610966565b50019056fea2646970667358221220e958803b35ef85cc186215b4b36dec3810797c1414c59f9ad45b602dfb1194f364736f6c634300080c0033",
  "linkReferences": {},
  "deployedLinkReferences": {}
}