{
  "_format": "hh-sol-artifact-1",
  "contractName": "Web3DP",
  "sourceName": "contracts/web3dp.sol",
  "abi": [
    {
      "inputs": [],
      "stateMutability": "nonpayable",
      "type": "constructor"
    },
    {
      "anonymous": false,
      "inputs": [
        {
          "indexed": true,
          "internalType": "address",
          "name": "owner",
          "type": "address"
        },
        {
          "indexed": true,
          "internalType": "address",
          "name": "approved",
          "type": "address"
        },
        {
          "indexed": true,
          "internalType": "uint256",
          "name": "tokenId",
          "type": "uint256"
        }
      ],
      "name": "Approval",
      "type": "event"
    },
    {
      "anonymous": false,
      "inputs": [
        {
          "indexed": true,
          "internalType": "address",
          "name": "owner",
          "type": "address"
        },
        {
          "indexed": true,
          "internalType": "address",
          "name": "operator",
          "type": "address"
        },
        {
          "indexed": false,
          "internalType": "bool",
          "name": "approved",
          "type": "bool"
        }
      ],
      "name": "ApprovalForAll",
      "type": "event"
    },
    {
      "anonymous": false,
      "inputs": [
        {
          "indexed": true,
          "internalType": "address",
          "name": "from",
          "type": "address"
        },
        {
          "indexed": true,
          "internalType": "address",
          "name": "to",
          "type": "address"
        },
        {
          "indexed": true,
          "internalType": "uint256",
          "name": "tokenId",
          "type": "uint256"
        }
      ],
      "name": "Transfer",
      "type": "event"
    },
    {
      "inputs": [
        {
          "internalType": "address",
          "name": "to",
          "type": "address"
        },
        {
          "internalType": "uint256",
          "name": "tokenId",
          "type": "uint256"
        }
      ],
      "name": "approve",
      "outputs": [],
      "stateMutability": "nonpayable",
      "type": "function"
    },
    {
      "inputs": [
        {
          "internalType": "address",
          "name": "owner",
          "type": "address"
        }
      ],
      "name": "balanceOf",
      "outputs": [
        {
          "internalType": "uint256",
          "name": "",
          "type": "uint256"
        }
      ],
      "stateMutability": "view",
      "type": "function"
    },
    {
      "inputs": [
        {
          "internalType": "uint256",
          "name": "tokenId",
          "type": "uint256"
        }
      ],
      "name": "getApproved",
      "outputs": [
        {
          "internalType": "address",
          "name": "",
          "type": "address"
        }
      ],
      "stateMutability": "view",
      "type": "function"
    },
    {
      "inputs": [
        {
          "internalType": "address",
          "name": "owner",
          "type": "address"
        },
        {
          "internalType": "address",
          "name": "operator",
          "type": "address"
        }
      ],
      "name": "isApprovedForAll",
      "outputs": [
        {
          "internalType": "bool",
          "name": "",
          "type": "bool"
        }
      ],
      "stateMutability": "view",
      "type": "function"
    },
    {
      "inputs": [
        {
          "internalType": "address",
          "name": "recipient",
          "type": "address"
        },
        {
          "internalType": "string",
          "name": "uri",
          "type": "string"
        }
      ],
      "name": "mintNFT",
      "outputs": [
        {
          "internalType": "uint256",
          "name": "",
          "type": "uint256"
        }
      ],
      "stateMutability": "nonpayable",
      "type": "function"
    },
    {
      "inputs": [],
      "name": "name",
      "outputs": [
        {
          "internalType": "string",
          "name": "",
          "type": "string"
        }
      ],
      "stateMutability": "view",
      "type": "function"
    },
    {
      "inputs": [
        {
          "internalType": "uint256",
          "name": "tokenId",
          "type": "uint256"
        }
      ],
      "name": "ownerOf",
      "outputs": [
        {
          "internalType": "address",
          "name": "",
          "type": "address"
        }
      ],
      "stateMutability": "view",
      "type": "function"
    },
    {
      "inputs": [
        {
          "internalType": "address",
          "name": "from",
          "type": "address"
        },
        {
          "internalType": "address",
          "name": "to",
          "type": "address"
        },
        {
          "internalType": "uint256",
          "name": "tokenId",
          "type": "uint256"
        }
      ],
      "name": "safeTransferFrom",
      "outputs": [],
      "stateMutability": "nonpayable",
      "type": "function"
    },
    {
      "inputs": [
        {
          "internalType": "address",
          "name": "from",
          "type": "address"
        },
        {
          "internalType": "address",
          "name": "to",
          "type": "address"
        },
        {
          "internalType": "uint256",
          "name": "tokenId",
          "type": "uint256"
        },
        {
          "internalType": "bytes",
          "name": "data",
          "type": "bytes"
        }
      ],
      "name": "safeTransferFrom",
      "outputs": [],
      "stateMutability": "nonpayable",
      "type": "function"
    },
    {
      "inputs": [
        {
          "internalType": "address",
          "name": "operator",
          "type": "address"
        },
        {
          "internalType": "bool",
          "name": "approved",
          "type": "bool"
        }
      ],
      "name": "setApprovalForAll",
      "outputs": [],
      "stateMutability": "nonpayable",
      "type": "function"
    },
    {
      "inputs": [
        {
          "internalType": "bytes4",
          "name": "interfaceId",
          "type": "bytes4"
        }
      ],
      "name": "supportsInterface",
      "outputs": [
        {
          "internalType": "bool",
          "name": "",
          "type": "bool"
        }
      ],
      "stateMutability": "view",
      "type": "function"
    },
    {
      "inputs": [],
      "name": "symbol",
      "outputs": [
        {
          "internalType": "string",
          "name": "",
          "type": "string"
        }
      ],
      "stateMutability": "view",
      "type": "function"
    },
    {
      "inputs": [
        {
          "internalType": "uint256",
          "name": "index",
          "type": "uint256"
        }
      ],
      "name": "tokenByIndex",
      "outputs": [
        {
          "internalType": "uint256",
          "name": "",
          "type": "uint256"
        }
      ],
      "stateMutability": "view",
      "type": "function"
    },
    {
      "inputs": [
        {
          "internalType": "address",
          "name": "owner",
          "type": "address"
        },
        {
          "internalType": "uint256",
          "name": "index",
          "type": "uint256"
        }
      ],
      "name": "tokenOfOwnerByIndex",
      "outputs": [
        {
          "internalType": "uint256",
          "name": "",
          "type": "uint256"
        }
      ],
      "stateMutability": "view",
      "type": "function"
    },
    {
      "inputs": [
        {
          "internalType": "uint256",
          "name": "tokenIds",
          "type": "uint256"
        }
      ],
      "name": "tokenURI",
      "outputs": [
        {
          "internalType": "string",
          "name": "",
          "type": "string"
        }
      ],
      "stateMutability": "view",
      "type": "function"
    },
    {
      "inputs": [],
      "name": "totalSupply",
      "outputs": [
        {
          "internalType": "uint256",
          "name": "",
          "type": "uint256"
        }
      ],
      "stateMutability": "view",
      "type": "function"
    },
    {
      "inputs": [
        {
          "internalType": "address",
          "name": "from",
          "type": "address"
        },
        {
          "internalType": "address",
          "name": "to",
          "type": "address"
        },
        {
          "internalType": "uint256",
          "name": "tokenId",
          "type": "uint256"
        }
      ],
      "name": "transferFrom",
      "outputs": [],
      "stateMutability": "nonpayable",
      "type": "function"
    }
  ],
  "bytecode": "0x60806040523480156200001157600080fd5b50604080518082018252600681526505765623344560d41b602080830191825283518085019094526002845261057560f41b9084015281519192916200005a9160009162000079565b5080516200007090600190602084019062000079565b5050506200015c565b82805462000087906200011f565b90600052602060002090601f016020900481019282620000ab5760008555620000f6565b82601f10620000c657805160ff1916838001178555620000f6565b82800160010185558215620000f6579182015b82811115620000f6578251825591602001919060010190620000d9565b506200010492915062000108565b5090565b5b8082111562000104576000815560010162000109565b600181811c908216806200013457607f821691505b602082108114156200015657634e487b7160e01b600052602260045260246000fd5b50919050565b6119c4806200016c6000396000f3fe608060405234801561001057600080fd5b506004361061010b5760003560e01c80634f6ccce7116100a2578063a22cb46511610071578063a22cb46514610219578063b88d4fde1461022c578063c87b56dd1461023f578063e985e9c514610252578063eacabe141461028e57600080fd5b80634f6ccce7146101d85780636352211e146101eb57806370a08231146101fe57806395d89b411461021157600080fd5b806318160ddd116100de57806318160ddd1461018d57806323b872dd1461019f5780632f745c59146101b257806342842e0e146101c557600080fd5b806301ffc9a71461011057806306fdde0314610138578063081812fc1461014d578063095ea7b314610178575b600080fd5b61012361011e366004611449565b6102a1565b60405190151581526020015b60405180910390f35b6101406102b2565b60405161012f91906114be565b61016061015b3660046114d1565b610344565b6040516001600160a01b03909116815260200161012f565b61018b610186366004611506565b61036b565b005b6008545b60405190815260200161012f565b61018b6101ad366004611530565b610486565b6101916101c0366004611506565b6104b7565b61018b6101d3366004611530565b61054d565b6101916101e63660046114d1565b610568565b6101606101f93660046114d1565b6105fb565b61019161020c36600461156c565b61065b565b6101406106e1565b61018b610227366004611587565b6106f0565b61018b61023a36600461164f565b6106ff565b61014061024d3660046114d1565b610737565b6101236102603660046116cb565b6001600160a01b03918216600090815260056020908152604080832093909416825291909152205460ff1690565b61019161029c3660046116fe565b610742565b60006102ac8261077a565b92915050565b6060600080546102c190611760565b80601f01602080910402602001604051908101604052809291908181526020018280546102ed90611760565b801561033a5780601f1061030f5761010080835404028352916020019161033a565b820191906000526020600020905b81548152906001019060200180831161031d57829003601f168201915b5050505050905090565b600061034f8261079f565b506000908152600460205260409020546001600160a01b031690565b6000610376826105fb565b9050806001600160a01b0316836001600160a01b031614156103e95760405162461bcd60e51b815260206004820152602160248201527f4552433732313a20617070726f76616c20746f2063757272656e74206f776e656044820152603960f91b60648201526084015b60405180910390fd5b336001600160a01b038216148061040557506104058133610260565b6104775760405162461bcd60e51b815260206004820152603e60248201527f4552433732313a20617070726f76652063616c6c6572206973206e6f7420746f60448201527f6b656e206f776e6572206e6f7220617070726f76656420666f7220616c6c000060648201526084016103e0565b6104818383610801565b505050565b610490338261086f565b6104ac5760405162461bcd60e51b81526004016103e09061179b565b6104818383836108ee565b60006104c28361065b565b82106105245760405162461bcd60e51b815260206004820152602b60248201527f455243373231456e756d657261626c653a206f776e657220696e646578206f7560448201526a74206f6620626f756e647360a81b60648201526084016103e0565b506001600160a01b03919091166000908152600660209081526040808320938352929052205490565b610481838383604051806020016040528060008152506106ff565b600061057360085490565b82106105d65760405162461bcd60e51b815260206004820152602c60248201527f455243373231456e756d657261626c653a20676c6f62616c20696e646578206f60448201526b7574206f6620626f756e647360a01b60648201526084016103e0565b600882815481106105e9576105e96117e9565b90600052602060002001549050919050565b6000818152600260205260408120546001600160a01b0316806102ac5760405162461bcd60e51b8152602060048201526018602482015277115490cdcc8c4e881a5b9d985b1a59081d1bdad95b88125160421b60448201526064016103e0565b60006001600160a01b0382166106c55760405162461bcd60e51b815260206004820152602960248201527f4552433732313a2061646472657373207a65726f206973206e6f7420612076616044820152683634b21037bbb732b960b91b60648201526084016103e0565b506001600160a01b031660009081526003602052604090205490565b6060600180546102c190611760565b6106fb338383610a95565b5050565b610709338361086f565b6107255760405162461bcd60e51b81526004016103e09061179b565b61073184848484610b64565b50505050565b60606102ac82610b97565b6000610752600b80546001019055565b600061075d600b5490565b90506107698482610ca0565b6107738184610dee565b9392505050565b60006001600160e01b0319821663780e9d6360e01b14806102ac57506102ac82610e88565b6000818152600260205260409020546001600160a01b03166107fe5760405162461bcd60e51b8152602060048201526018602482015277115490cdcc8c4e881a5b9d985b1a59081d1bdad95b88125160421b60448201526064016103e0565b50565b600081815260046020526040902080546001600160a01b0319166001600160a01b0384169081179091558190610836826105fb565b6001600160a01b03167f8c5be1e5ebec7d5bd14f71427d1e84f3dd0314c0f7b2291e5b200ac8c7c3b92560405160405180910390a45050565b60008061087b836105fb565b9050806001600160a01b0316846001600160a01b031614806108c257506001600160a01b0380821660009081526005602090815260408083209388168352929052205460ff165b806108e65750836001600160a01b03166108db84610344565b6001600160a01b0316145b949350505050565b826001600160a01b0316610901826105fb565b6001600160a01b0316146109655760405162461bcd60e51b815260206004820152602560248201527f4552433732313a207472616e736665722066726f6d20696e636f72726563742060448201526437bbb732b960d91b60648201526084016103e0565b6001600160a01b0382166109c75760405162461bcd60e51b8152602060048201526024808201527f4552433732313a207472616e7366657220746f20746865207a65726f206164646044820152637265737360e01b60648201526084016103e0565b6109d2838383610ed8565b6109dd600082610801565b6001600160a01b0383166000908152600360205260408120805460019290610a06908490611815565b90915550506001600160a01b0382166000908152600360205260408120805460019290610a3490849061182c565b909155505060008181526002602052604080822080546001600160a01b0319166001600160a01b0386811691821790925591518493918716917fddf252ad1be2c89b69c2b068fc378daa952ba7f163c4a11628f55a4df523b3ef91a4505050565b816001600160a01b0316836001600160a01b03161415610af75760405162461bcd60e51b815260206004820152601960248201527f4552433732313a20617070726f766520746f2063616c6c65720000000000000060448201526064016103e0565b6001600160a01b03838116600081815260056020908152604080832094871680845294825291829020805460ff191686151590811790915591519182527f17307eab39ab6107e8899845ad3d59bd9653f200f220920489ca2b5937696c31910160405180910390a3505050565b610b6f8484846108ee565b610b7b84848484610ee3565b6107315760405162461bcd60e51b81526004016103e090611844565b6060610ba28261079f565b6000828152600a602052604081208054610bbb90611760565b80601f0160208091040260200160405190810160405280929190818152602001828054610be790611760565b8015610c345780601f10610c0957610100808354040283529160200191610c34565b820191906000526020600020905b815481529060010190602001808311610c1757829003601f168201915b505050505090506000610c5260408051602081019091526000815290565b9050805160001415610c65575092915050565b815115610c97578082604051602001610c7f929190611896565b60405160208183030381529060405292505050919050565b6108e684610fe1565b6001600160a01b038216610cf65760405162461bcd60e51b815260206004820181905260248201527f4552433732313a206d696e7420746f20746865207a65726f206164647265737360448201526064016103e0565b6000818152600260205260409020546001600160a01b031615610d5b5760405162461bcd60e51b815260206004820152601c60248201527f4552433732313a20746f6b656e20616c7265616479206d696e7465640000000060448201526064016103e0565b610d6760008383610ed8565b6001600160a01b0382166000908152600360205260408120805460019290610d9090849061182c565b909155505060008181526002602052604080822080546001600160a01b0319166001600160a01b03861690811790915590518392907fddf252ad1be2c89b69c2b068fc378daa952ba7f163c4a11628f55a4df523b3ef908290a45050565b6000828152600260205260409020546001600160a01b0316610e695760405162461bcd60e51b815260206004820152602e60248201527f45524337323155524953746f726167653a2055524920736574206f66206e6f6e60448201526d32bc34b9ba32b73a103a37b5b2b760911b60648201526084016103e0565b6000828152600a6020908152604090912082516104819284019061139a565b60006001600160e01b031982166380ac58cd60e01b1480610eb957506001600160e01b03198216635b5e139f60e01b145b806102ac57506301ffc9a760e01b6001600160e01b03198316146102ac565b610481838383611054565b60006001600160a01b0384163b15610fd657604051630a85bd0160e11b81526001600160a01b0385169063150b7a0290610f279033908990889088906004016118c5565b6020604051808303816000875af1925050508015610f62575060408051601f3d908101601f19168201909252610f5f91810190611902565b60015b610fbc573d808015610f90576040519150601f19603f3d011682016040523d82523d6000602084013e610f95565b606091505b508051610fb45760405162461bcd60e51b81526004016103e090611844565b805181602001fd5b6001600160e01b031916630a85bd0160e11b1490506108e6565b506001949350505050565b6060610fec8261079f565b600061100360408051602081019091526000815290565b905060008151116110235760405180602001604052806000815250610773565b8061102d8461110c565b60405160200161103e929190611896565b6040516020818303038152906040529392505050565b6001600160a01b0383166110af576110aa81600880546000838152600960205260408120829055600182018355919091527ff3f7a9fe364faab93b216da50a3214154f22a0a2b415b23a84c8169e8b636ee30155565b6110d2565b816001600160a01b0316836001600160a01b0316146110d2576110d2838261120a565b6001600160a01b0382166110e957610481816112a7565b826001600160a01b0316826001600160a01b031614610481576104818282611356565b6060816111305750506040805180820190915260018152600360fc1b602082015290565b8160005b811561115a57806111448161191f565b91506111539050600a83611950565b9150611134565b60008167ffffffffffffffff811115611175576111756115c3565b6040519080825280601f01601f19166020018201604052801561119f576020820181803683370190505b5090505b84156108e6576111b4600183611815565b91506111c1600a86611964565b6111cc90603061182c565b60f81b8183815181106111e1576111e16117e9565b60200101906001600160f81b031916908160001a905350611203600a86611950565b94506111a3565b600060016112178461065b565b6112219190611815565b600083815260076020526040902054909150808214611274576001600160a01b03841660009081526006602090815260408083208584528252808320548484528184208190558352600790915290208190555b5060009182526007602090815260408084208490556001600160a01b039094168352600681528383209183525290812055565b6008546000906112b990600190611815565b600083815260096020526040812054600880549394509092849081106112e1576112e16117e9565b906000526020600020015490508060088381548110611302576113026117e9565b600091825260208083209091019290925582815260099091526040808220849055858252812055600880548061133a5761133a611978565b6001900381819060005260206000200160009055905550505050565b60006113618361065b565b6001600160a01b039093166000908152600660209081526040808320868452825280832085905593825260079052919091209190915550565b8280546113a690611760565b90600052602060002090601f0160209004810192826113c8576000855561140e565b82601f106113e157805160ff191683800117855561140e565b8280016001018555821561140e579182015b8281111561140e5782518255916020019190600101906113f3565b5061141a92915061141e565b5090565b5b8082111561141a576000815560010161141f565b6001600160e01b0319811681146107fe57600080fd5b60006020828403121561145b57600080fd5b813561077381611433565b60005b83811015611481578181015183820152602001611469565b838111156107315750506000910152565b600081518084526114aa816020860160208601611466565b601f01601f19169290920160200192915050565b6020815260006107736020830184611492565b6000602082840312156114e357600080fd5b5035919050565b80356001600160a01b038116811461150157600080fd5b919050565b6000806040838503121561151957600080fd5b611522836114ea565b946020939093013593505050565b60008060006060848603121561154557600080fd5b61154e846114ea565b925061155c602085016114ea565b9150604084013590509250925092565b60006020828403121561157e57600080fd5b610773826114ea565b6000806040838503121561159a57600080fd5b6115a3836114ea565b9150602083013580151581146115b857600080fd5b809150509250929050565b634e487b7160e01b600052604160045260246000fd5b600067ffffffffffffffff808411156115f4576115f46115c3565b604051601f8501601f19908116603f0116810190828211818310171561161c5761161c6115c3565b8160405280935085815286868601111561163557600080fd5b858560208301376000602087830101525050509392505050565b6000806000806080858703121561166557600080fd5b61166e856114ea565b935061167c602086016114ea565b925060408501359150606085013567ffffffffffffffff81111561169f57600080fd5b8501601f810187136116b057600080fd5b6116bf878235602084016115d9565b91505092959194509250565b600080604083850312156116de57600080fd5b6116e7836114ea565b91506116f5602084016114ea565b90509250929050565b6000806040838503121561171157600080fd5b61171a836114ea565b9150602083013567ffffffffffffffff81111561173657600080fd5b8301601f8101851361174757600080fd5b611756858235602084016115d9565b9150509250929050565b600181811c9082168061177457607f821691505b6020821081141561179557634e487b7160e01b600052602260045260246000fd5b50919050565b6020808252602e908201527f4552433732313a2063616c6c6572206973206e6f7420746f6b656e206f776e6560408201526d1c881b9bdc88185c1c1c9bdd995960921b606082015260800190565b634e487b7160e01b600052603260045260246000fd5b634e487b7160e01b600052601160045260246000fd5b600082821015611827576118276117ff565b500390565b6000821982111561183f5761183f6117ff565b500190565b60208082526032908201527f4552433732313a207472616e7366657220746f206e6f6e20455243373231526560408201527131b2b4bb32b91034b6b83632b6b2b73a32b960711b606082015260800190565b600083516118a8818460208801611466565b8351908301906118bc818360208801611466565b01949350505050565b6001600160a01b03858116825284166020820152604081018390526080606082018190526000906118f890830184611492565b9695505050505050565b60006020828403121561191457600080fd5b815161077381611433565b6000600019821415611933576119336117ff565b5060010190565b634e487b7160e01b600052601260045260246000fd5b60008261195f5761195f61193a565b500490565b6000826119735761197361193a565b500690565b634e487b7160e01b600052603160045260246000fdfea2646970667358221220c9cb2857d1ccdec05ba0bfc76afacbe911eeb2a66dd983a3b085fa57c6c1984364736f6c634300080c0033",
  "linkReferences": {},
  "deployedLinkReferences": {}
}